{
  "_format": "hh-sol-artifact-1",
  "contractName": "DomainRegistry",
  "sourceName": "contracts/DomainRegistry.sol",
  "abi": [
    {
      "inputs": [
        {
          "internalType": "string",
          "name": "domain",
          "type": "string"
        },
        {
          "internalType": "address",
          "name": "contractAddress",
          "type": "address"
        }
      ],
      "name": "addMapping",
      "outputs": [],
      "stateMutability": "nonpayable",
      "type": "function"
    },
    {
      "inputs": [
        {
          "internalType": "string",
          "name": "domain",
          "type": "string"
        }
      ],
      "name": "getMapping",
      "outputs": [
        {
          "internalType": "address[]",
          "name": "",
          "type": "address[]"
        }
      ],
      "stateMutability": "view",
      "type": "function"
    },
    {
      "inputs": [
        {
          "internalType": "string",
          "name": "domain",
          "type": "string"
        },
        {
          "internalType": "address",
          "name": "contractAddress",
          "type": "address"
        }
      ],
      "name": "removeMapping",
      "outputs": [],
      "stateMutability": "nonpayable",
      "type": "function"
    }
  ],
  "bytecode": "0x608060405234801561001057600080fd5b506107d1806100206000396000f3fe608060405234801561001057600080fd5b50600436106100415760003560e01c806311f45e9c14610046578063c002970e14610076578063d91d058314610092575b600080fd5b610060600480360381019061005b91906103a1565b6100ae565b60405161006d9190610513565b60405180910390f35b610090600480360381019061008b91906103ea565b61015d565b005b6100ac60048036038101906100a791906103ea565b6101e3565b005b60606000826040516100c091906104fc565b908152602001604051809103902060000180548060200260200160405190810160405280929190818152602001828054801561015157602002820191906000526020600020905b8160009054906101000a900473ffffffffffffffffffffffffffffffffffffffff1673ffffffffffffffffffffffffffffffffffffffff1681526020019060010190808311610107575b50505050509050919050565b60008260405161016d91906104fc565b9081526020016040518091039020600001819080600181540180825580915050600190039060005260206000200160009091909190916101000a81548173ffffffffffffffffffffffffffffffffffffffff021916908373ffffffffffffffffffffffffffffffffffffffff1602179055505050565b60005b6000836040516101f691906104fc565b908152602001604051809103902060000180549050811015610317578173ffffffffffffffffffffffffffffffffffffffff1660008460405161023991906104fc565b9081526020016040518091039020600001828154811061025c5761025b610701565b5b9060005260206000200160009054906101000a900473ffffffffffffffffffffffffffffffffffffffff1673ffffffffffffffffffffffffffffffffffffffff161415610304576000836040516102b391906104fc565b908152602001604051809103902060000181815481106102d6576102d5610701565b5b9060005260206000200160006101000a81549073ffffffffffffffffffffffffffffffffffffffff02191690555b808061030f90610689565b9150506101e6565b505050565b600061032f61032a8461055a565b610535565b90508281526020810184848401111561034b5761034a610764565b5b610356848285610616565b509392505050565b60008135905061036d81610784565b92915050565b600082601f8301126103885761038761075f565b5b813561039884826020860161031c565b91505092915050565b6000602082840312156103b7576103b661076e565b5b600082013567ffffffffffffffff8111156103d5576103d4610769565b5b6103e184828501610373565b91505092915050565b600080604083850312156104015761040061076e565b5b600083013567ffffffffffffffff81111561041f5761041e610769565b5b61042b85828601610373565b925050602061043c8582860161035e565b9150509250929050565b6000610452838361045e565b60208301905092915050565b610467816105da565b82525050565b60006104788261059b565b61048281856105be565b935061048d8361058b565b8060005b838110156104be5781516104a58882610446565b97506104b0836105b1565b925050600181019050610491565b5085935050505092915050565b60006104d6826105a6565b6104e081856105cf565b93506104f0818560208601610625565b80840191505092915050565b600061050882846104cb565b915081905092915050565b6000602082019050818103600083015261052d818461046d565b905092915050565b600061053f610550565b905061054b8282610658565b919050565b6000604051905090565b600067ffffffffffffffff82111561057557610574610730565b5b61057e82610773565b9050602081019050919050565b6000819050602082019050919050565b600081519050919050565b600081519050919050565b6000602082019050919050565b600082825260208201905092915050565b600081905092915050565b60006105e5826105ec565b9050919050565b600073ffffffffffffffffffffffffffffffffffffffff82169050919050565b6000819050919050565b82818337600083830152505050565b60005b83811015610643578082015181840152602081019050610628565b83811115610652576000848401525b50505050565b61066182610773565b810181811067ffffffffffffffff821117156106805761067f610730565b5b80604052505050565b60006106948261060c565b91507fffffffffffffffffffffffffffffffffffffffffffffffffffffffffffffffff8214156106c7576106c66106d2565b5b600182019050919050565b7f4e487b7100000000000000000000000000000000000000000000000000000000600052601160045260246000fd5b7f4e487b7100000000000000000000000000000000000000000000000000000000600052603260045260246000fd5b7f4e487b7100000000000000000000000000000000000000000000000000000000600052604160045260246000fd5b600080fd5b600080fd5b600080fd5b600080fd5b6000601f19601f8301169050919050565b61078d816105da565b811461079857600080fd5b5056fea2646970667358221220452e4967cc97e7b12249d908656e6bba5bc4258f33abc08c5032d7bb7770026764736f6c63430008070033",
  "linkReferences": {},
  "deployedLinkReferences": {}
}